:020000040800F2
:1000000038070020CD01000873160008E514000829
:10001000711600086B030008E319000800000000D7
:10002000000000000000000000000000771600083B
:100030006D0300080000000075160008791600081E
:10004000E7010008E7010008E7010008E7010008F0
:10005000E7010008E7010008E7010008E7010008E0
:10006000E7010008E7010008E7010008E7010008D0
:10007000E7010008E7010008E7010008E7010008C0
:10008000E7010008E7010008E7010008E7010008B0
:10009000E7010008E7010008E7010008E7010008A0
:1000A000E7010008E7010008E7010008E701000890
:1000B000F9160008E7010008E7010008E701000859
:1000C000E7010008E7010008E7010008E701000870
:1000D000E7010008E7010008E7010008E701000860
:1000E000E7010008E7010008E7010008E701000850
:1000F000E7010008E7010008E7010008E701000840
:10010000E7010008E7010008E7010008E70100082F
:10011000E7010008E7010008E7010008E70100081F
:10012000E7010008E7010008E7010008E70100080F
:1001300000F002F800F03AF80AA090E8000C8244BF
:100140008344AAF10107DA4501D100F02FF8AFF29C
:10015000090EBAE80F0013F0010F18BFFB1A43F0A5
:10016000010318475019000070190000103A24BF0D
:1001700078C878C1FAD8520724BF30C830C144BF0C
:1001800004680C607047000000230024002500264E
:10019000103A28BF78C1FBD8520728BF30C148BFEA
:1001A0000B6070471FB51FBD10B510BD00F077F88C
:1001B0001146FFF7F7FF01F025FC00F095F803B4B6
:1001C000FFF7F2FF03BC00F09DF8000009488047EC
:1001D00009480047FEE7FEE7FEE7FEE7FEE7FEE729
:1001E000FEE7FEE7FEE7FEE704480549054A064B41
:1001F00070470000F71600083101000838010020A0
:1002000038070020380300203803002010B5431CB5
:1002100002E010F8011B71B18107FAD14FF00132F1
:1002200002C88C1A8C4314EAC211F9D0C01A0A060B
:1002300003D0C01E10BDC01A10BD0A0401D0801E1C
:1002400010BD0902FCD0401E10BD4FF0000200B5E9
:10025000134694469646203922BFA0E80C50A0E8E9
:100260000C50B1F12001BFF4F7AF090728BFA0E897
:100270000C5048BF0CC05DF804EB890028BF40F863
:10028000042B08BF704748BF20F8022B11F0804FA5
:1002900018BF00F8012B70477047704770477546CC
:1002A00000F02CF8AE4605006946534620F00700E2
:1002B000854618B020B5FFF797FFBDE820404FF006
:1002C00000064FF000074FF000084FF0000B21F040
:1002D0000701AC46ACE8C009ACE8C009ACE8C0090D
:1002E000ACE8C0098D46704710B50446AFF30080F6
:1002F0002046BDE81040FFF762BF0000004870478D
:10030000D800002001491820ABBEFEE726000200FD
:100310007047000070B5044600688168C943C9078A
:1003200017D1816821F00101816000F05FFA054674
:100330000AE000BF00F05AFA401B022804D92068E6
:100340008068C043C00706D020688068C043C007EB
:10035000F0D0002070BDA06A40F01000A062E06AFA
:1003600040F00100E062012070BDFEE7704772B608
:10037000FEE70000F8B50024009490F824202546FC
:10038000012A12D0012280F824204A681F23072A5C
:100390000DD20668776B521E02EB820293409F4398
:1003A0000B6893401F43776319E00220F8BD06688D
:1003B0000D2A0AD2376BD21F02EB820293409F4371
:1003C0000B6893401F43376309E0F76A0D3A02EB6D
:1003D000820293409F430B6893401F43F7620A6871
:1003E000072306680A2A0AD3F7680A3A02EB420290
:1003F00093409F438B6893401F43F76008E0376941
:1004000002EB420293409F438B6893401F43376146
:100410000A68102A01D0112A20D1124B02689A4290
:1004200017D193681B0219D4936843F400039360B7
:100430000968102912D10C490C4A0968B1FBF2F184
:1004400001EB8101490000E0491E00910029FBD128
:1004500004E0816A41F020018162012480F8245087
:100460002046F8BD002401401400002040420F0047
:100470002DE9F04104004FF000057FD0A06A00266E
:1004800028B9E66284F82460204600F081F820460E
:10049000FFF740FFA16AC90600D420B1A06A40F06E
:1004A0001000A0626AE0A16A21F4885141F00201C3
:1004B000A162334923688B42E16904D1B1F5402F31
:1004C00001D14FF40021277B4FF4807C41EA4702A1
:1004D00061680A43A168614508D0012906D000215E
:1004E00094F814E0BEF1010F02D00AE06146F7E78C
:1004F000C7B1A76A47F02007A762E76A47F001077C
:10050000E7625F6827F469470F435F602368996873
:100510001C4F394011439960A16861450BD00129F6
:1005200009D00CE0DFF860E0A7690EEB47370F4316
:1005300047F40061E5E7218A0D05A5F580152168DE
:10054000CB6A23F470032B43CB62216889680F4B7D
:100550001940914208D1E662A16A21F0020141F0FE
:100560000101A162BDE8F081A06A20F0020040F024
:100570001000A062E06A40F00100E0620120F1E7B3
:10058000003C0140FDF7E1FF00E0FFFFFE0E1FFF12
:1005900000B585B00021009101910291039100689E
:1005A0000E49884218D10E48816941F40071816179
:1005B000816901F400710491816941F00401816154
:1005C0008069694600F00400049001200090032037
:1005D0000190044800F008F805B000BD0024014077
:1005E00000100240000801402DE9F84FDFF8C891E3
:1005F0000024A9F1040B23460F2709F1040AABF1EB
:10060000040ED1E00125A54006EA0502AA4276D1F2
:10061000DFF8A8C14E68A6EB0C0866452BD00DDCB0
:10062000032E34D005DC36B3012E19D0022E2FD183
:100630001BE0112E16D0122E2AD119E0B8F5881F12
:1006400019D006DCB8F5803F15D0B8F5801F1FD152
:1006500011E0B8F5001F0ED0B8F5041F18D10AE05C
:10066000CB6815E0CB681B1D12E0CB6808330FE0A8
:10067000CB680C330CE08B682BB1012B4FF00803D7
:1006800003D0456104E0042302E0056100E000239B
:10069000FF2A01D8064601E000F104064FEA84056E
:1006A00001D9A5F12005D6F8008007FA05FC28EA53
:1006B0000C0803FA05F548EA0508C6F800804D68FD
:1006C000ED0070D53E4DAE6946F00106AE61AD69F4
:1006D00024F0030605F0010500953A4D06EB050CE4
:1006E000DCF80850A607360F07FA06F825EA0805D1
:1006F000DFF8D480404503D14FF0000825E052E0F8
:10070000DFF8C880404502D14FF001081DE0DFF856
:10071000C080404502D14FF0020816E0DFF8B480F7
:10072000404502D14FF003080FE0DFF8AC804045B0
:1007300002D14FF0040808E0DFF8A080404502D164
:100740004FF0050801E04FF0060808FA06F848EAFD
:100750000508CCF808804D68D9F80060ED024D46D8
:1007600001D5164300E096432E604D68DAF800602C
:10077000AD02554601D5164300E096432E604D6804
:10078000DBF80060AD035D4601D5164300E09643FB
:100790002E604D68DEF80060ED03754601D5164306
:1007A00000E096432E60641C0A681646E2407FF41F
:1007B00029AFBDE8F88F00000804014000001110C7
:1007C000001002400000014000080140000C014000
:1007D000001001400014014000180140001C0140BD
:1007E0000AB1016170470904FBE700000148806815
:1007F0007047000008000020024881680278114418
:100800008160704708000020074810B5016841F07A
:1008100010010160032000F075F80F2000F006F8C9
:1008200000F024F8002010BD0020024070B50D4DEE
:1008300004464FF47A712878B1FBF0F00A49096850
:10084000B1FBF0F000F052FB48B9102C07D20022A7
:100850002146501E00F036F800206C6070BD01206B
:1008600070BD000008000020140000200C4808B5EE
:10087000816941F001018161816901F0010100910B
:10088000C16941F08051C161C06900F080500090A1
:100890000448416821F0E06141F00071416008BD09
:1008A0000010024000000140002809DB00F01F0298
:1008B000012191404009800000F1E020C0F80011C2
:1008C00070470000F0B40E4B1B680C46C3F30223C4
:1008D000C3F10705042D00D90425191D072901D2EC
:1008E000002300E0DB1E012606FA05F1491E214027
:1008F00099409E40761E16403143F0BC01F072B81C
:100900000CED00E0064900F0070208684FF6FF030F
:10091000184040EA0220034A104308607047000074
:100920000CED00E00000FA052DE9F84305460078DB
:10093000354CC00754D0E0690026C00008D4E069F7
:1009400040F08050E061E069012600F080500090A6
:100950002E480168C90512D40168804641F48071AF
:100960000160FFF743FF074605E000BFFFF73EFFCA
:10097000C01B642823D8D8F80000C005F6D5206A2B
:1009800010F4407021D0A98801F4407181421CD03C
:10099000206A1F49012220F440700A6000220A6088
:1009A0002062C00711D0FFF721FF074641F28838C7
:1009B00008E000BFFFF71AFFC11B414502D9032021
:1009C000BDE8F883206A8007F4D5206A696820F4BE
:1009D0004070084320621EB1E06920F08050E06161
:1009E0002878800705D56068A96820F4404008434E
:1009F00060602878C00605D56068696920F48000C9
:100A0000084360600020DBE70010024000700040F7
:100A1000400442422DE9F0470F46050061D0434EA5
:100A2000306800F00700B84209D2306820F00700B3
:100A300038433060306800F00700B84251D1286870
:100A40003B4C810712D5400703D5606840F4E06055
:100A500060602878000703D5606840F460506060EB
:100A60006068A96820F0F000084360602878C0073B
:100A700028D06868012810D02168022810D0890782
:100A800000292EDA616821F0030101436160FFF75C
:100A9000ADFE804641F288390DE021688903EFE719
:100AA0008901EDE7FFF7A2FEA0EB0801494502D955
:100AB0000320BDE8F0876068696800F00C00B0EBC7
:100AC000810FEFD1306800F00700B8420BD93068D1
:100AD00020F0070038433060306800F00700B8426B
:100AE00001D00120E5E72878400705D56068E9686E
:100AF00020F4E060084360602878000706D560684D
:100B0000296920F4605040EAC100606000F038F8C4
:100B10006168084AC1F30311515CC8400649086086
:100B200006480068FFF782FE0020C2E7002002406E
:100B3000001002409A1A0008140000200C00002047
:100B40000448054900684968044AC1F30221515C20
:100B5000C84070471400002000100240AA1A000884
:100B60000448054900684968044AC1F3C221515C40
:100B7000C84070471400002000100240AA1A000864
:100B80000E4A51680E4801F00C03042B11D0082BBB
:100B90000FD10C48C1F38343C903C05C0AD5516827
:100BA000084AC1F34041921E515C054A5043B0FBD4
:100BB000F1F07047044948437047000000100240BC
:100BC00000127A008A1A000800093D002DE9F84F4A
:100BD000040070D02078C04DC00749D06868C0F3C9
:100BE0008100012807D06868C0F38100022809D17C
:100BF0006868C00306D52868800339D56068002876
:100C0000E7D035E06068B0F5803F0BD010B1B0F5AB
:100C1000A02F11D0286820F480302860286820F4A4
:100C2000802002E0286840F480302860606890B13D
:100C3000FFF7DCFD06460AE0286840F480202860C3
:100C4000F0E700BFFFF7D2FD801B642873D8286847
:100C50008003F7D50CE0FFF7C9FD064605E000BFAD
:100C6000FFF7C4FD801B6428F0D828688003F7D400
:100C700020789A4E80074FF001094FF0000839D5CF
:100C8000686810F00C0F07D06868C0F38100022874
:100C900009D16868C00306D42868800714D5206984
:100CA000012808D110E02069B0B1C6F80090FFF724
:100CB0009DFD074605E00AE1FFF798FDC01B0228ED
:100CC000C4D828688007F7D52868616920F0F80043
:100CD00040EAC10028600DE0C6F80080FFF786FDFD
:100CE000074604E0FFF782FDC01B022823D82868CE
:100CF0008007F7D4207800072CD57948A169D9B1AD
:100D0000C0F80090FFF772FD074604E0FFF76EFDA4
:100D1000C01B02280FD8686A8007F7D571484FF4C6
:100D2000FA510068B0FBF1F0009000BF0098411E3E
:100D30000091FAD20EE080E0C0F80080FFF756FD87
:100D4000074604E0FFF752FDC01B022875D8686A09
:100D50008007F7D42078400760D5E8690027C000F5
:100D600008D4E86940F08050E861E869012700F0A4
:100D7000805000905C480168C90513D4016883461F
:100D800041F480710160FFF731FD824606E000BF4B
:100D9000FFF72CFDA0EB0A0064284ED8DBF800001A
:100DA000C005F5D5E06801280AD008B1052813D0A0
:100DB000286A20F001002862286A20F0040002E07E
:100DC000286A40F001002862E06841F2883B98B14F
:100DD000FFF70CFD82460BE0286A40F00400286211
:100DE000EEE700BFFFF702FDA0EB0A0159455AD814
:100DF000286A8007F6D50CE0FFF7F8FC824605E08C
:100E0000FFF7F4FCA0EB0A0159454CD8286A80078B
:100E1000F6D41FB1E86920F08050E861E06988B33A
:100E20006968C1F38101022944D00228C6F86080B4
:100E300004D0FFF7DBFC044638E034E0FFF7D6FCD3
:100E4000074604E0FFF7D2FCC01B02282BD8286815
:100E50008001F7D4206AB0F5803F05D16868A168A9
:100E600020F4003008436860D4E908010843696849
:100E700021F4741108436860C6F86090FFF7B6FC6F
:100E8000044606E025E000BFFFF7B0FC001B022887
:100E900009D828688001F7D51BE000BFFFF7A6FC42
:100EA000001B022802D90320BDE8F88F28688001C2
:100EB000F4D40EE00128F7D06868226A00F480318B
:100EC000914204D1616A00F47010884201D001207F
:100ED000EAE70020E8E7000000100240000042427C
:100EE00080044242140000200070004010B5401EF3
:100EF000B0F1807F01D3012010BD4FF0E02460618C
:100F00000F21601700F06EFD0020A0610720206116
:100F1000002010BD7047704770B590F83C20012A42
:100F20002CD0012480F83C40022280F83D20036848
:100F30005A689D6822F070060A6832435A60104B66
:100F400002689A420ED00F4B9A420BD0B2F1804FFA
:100F500008D00D4B9A4205D00C4B9A4202D00C4B54
:100F60009A4204D1496825F080031943916080F8C2
:100F70003D40002180F83C10084670BD022070BD45
:100F8000002C0140003401400004004000080040F3
:100F9000000C004010B5040003D094F83D0010B1DF
:100FA00007E0012010BD002084F83C00204600F03E
:100FB0001FF8022084F83D00211D206800F0A2FBEC
:100FC000012084F8460084F83E0084F83F0084F84D
:100FD000400084F8410084F8420084F8430084F81B
:100FE000440084F8450084F83D00002010BD000056
:100FF00000B585B000210091019102910391006834
:10100000B0F1804F20D11148C16941F00101C161A7
:10101000C16901F001010491816941F0040181611C
:101020008069694600F0040004900220009001905D
:1010300003900748FFF7D8FA002211461C20FFF75B
:1010400041FC1C20FFF730FC05B000BD0010024041
:101050000008014090F83D10012901D0012070479F
:10106000022180F83D100168CA6842F00102CA609E
:1010700000680E4988420ED00D4988420BD0B0F16D
:10108000804F08D00B49884205D00B49884202D0D6
:101090000A49884204D1816801F00701062903D07A
:1010A000016841F00101016000207047002C0140FF
:1010B000003401400004004000080040000C0040E3
:1010C00070B5044690F83C000025012817D0012691
:1010D00084F83C60022084F83D002068826822F099
:1010E000770222F47F4282600868502838D00DDCF5
:1010F00020284FD005DC90B3102811D14AE00220FF
:1011000070BD302846D040280AD13BE060282FD05F
:1011100070280DD0B0F5805F03D0B0F5005F12D01D
:10112000012584F83D60002084F83C00284670BD0D
:10113000CB68D1E90121206800F032FB206881688A
:1011400041F0770109E0CB68D1E90121206800F086
:1011500027FB2068816841F480418160E1E719E064
:10116000CA684968206800F02DFB5021206806E01D
:10117000CA684968206800F036FB6021206800F0EA
:1011800019FBCEE7CA684968206800F01BFB4021C4
:101190002068F4E7226801461046F0E770472DE921
:1011A000F04104460068C66805694FF00007A907CA
:1011B00013D5B10711D5F91E0161012020772068F0
:1011C00080698007204602D0FFF7E8FF04E000F0C6
:1011D0007EF8204600F07CF82777680716D5700760
:1011E00014D521686FF00400086102202077206880
:1011F000806910F4407F204602D0FFF7CFFF04E063
:1012000000F065F8204600F063F82777280715D529
:10121000300713D521686FF008000861042020779B
:101220002068C0698007204602D0FFF7B7FF04E0BE
:1012300000F04DF8204600F04BF82777E80616D569
:10124000F00614D521686FF010000861082020779F
:101250002068C06910F4407F204602D0FFF79EFF4F
:1012600004E000F034F8204600F032F82777E80771
:1012700008D0F00706D021686FF001000861204611
:1012800000F028F8280608D5300606D521686FF04A
:10129000800008612046FFF73DFE680608D570060D
:1012A00006D521686FF040000861204600F05EF826
:1012B000A8060AD5B00608D521686FF0200008619D
:1012C0002046BDE8F041FFF726BEBDE8F08170473B
:1012D0007047000070B50068B0F1804F41D1214CDB
:1012E00000252078401CC0B22070642800D32570EF
:1012F00020786178884201D2012200E000221A4E53
:1013000010213046FFF76CFA20786178884201D2CC
:10131000012200E0002220213046FFF761FA207808
:101320006178884201D2012200E00022402130464B
:10133000FFF756FAA088401C80B2A080B0F57A7FF3
:101340000FD3A5806078A1780844C0B2607064288B
:1013500003D364206070FF2002E0002801D1012047
:10136000A07070BD0000002000080140704770B5FB
:10137000040004D094F84100002510B106E00120DB
:1013800070BD84F84050204600F024F8242084F8F2
:1013900041002068C16821F40051C160204600F07E
:1013A0008BFA2068016921F490410161206841694C
:1013B00021F02A0141612068C16841F40051C160F7
:1013C0006564202084F8410084F8420065630020B1
:1013D00070BD000030B585B00024009401940294E3
:1013E000039400681449884224D11448816941F467
:1013F00080418161816901F480410491816941F0FA
:101400000401816180690E4D00F0040004904FF4E6
:101410000070009002200190032003906946284646
:10142000FFF7E2F82815CDE9000469462846029442
:10143000FFF7DAF805B030BD003801400010024077
:10144000000801402DE9F843044690F84100984611
:1014500016460D46202802D00220BDE8F88385B14B
:101460007EB100206064212084F84100FFF7BEF9BE
:10147000A6848146E684A0682027B0F5805F02D06C
:1014800003E00120E9E7206910B12E4600250EE0B7
:1014900000260CE08021204600F06AFAA8B9C6B107
:1014A00016F8010B21684860E08C401EE084E08C57
:1014B0004B464FF00002CDF800800028EAD14FF0F3
:1014C0004001204600F054FA40B184F841700320F6
:1014D000C3E735F8020BC0F30800E3E784F8417076
:1014E0000020BAE7FEE700003EB500241048009453
:1014F000019402940D498460016004730475012510
:1015000005614FF460214460C161FEF7B1FF08B18D
:10151000FEF72DFFCDE90045694605480294FEF728
:1015200029FF002801D0FEF722FF3EBD0024014024
:1015300018000020F0B585B00024234800940194E1
:1015400002940394816941F020018161816901F075
:1015500020010491816941F010018161816901F0EC
:1015600010010491816941F0040181618069174F84
:1015700000F004000490012250213846FFF730F9B2
:10158000002220213846FFF72BF90E20CDE9000478
:1015900069460F480294FFF727F801255020CDE94E
:1015A00000050226CDE9025669463846FFF71CF8C9
:1015B0002020CDE90005CDE9024669463846FFF70F
:1015C00013F805B0F0BD0000001002400008014013
:1015D0000010014010B586B0002416480094019414
:1015E0000294039404944FF08041059401604721D4
:1015F000C0E901140921C0E903148461FFF7CAFCA2
:1016000008B1FEF7B4FE4FF48050009069460948D7
:10161000FFF756FD08B1FEF7AAFE049404A9054899
:101620000594FFF779FC002801D0FEF7A0FE06B074
:1016300010BD0000480000200C4810B50A490160A8
:101640004FF4E1314160002181600C22C160C0E9AA
:1016500004128161C161FFF78AFE002803D0BDE852
:101660001040FEF784BE10BD0038014090000020FD
:10167000FEE7FEE770477047FFF7BEB830B595B09C
:1016800028216846FEF7E1FD14210AA8FEF7DDFDDA
:1016900018210FA8FEF7D9FD01210804CDE900109B
:1016A0000025029502240491CDE907404FF4E01093
:1016B00009906846FFF78AFA08B172B6FEE70AA9F0
:1016C0000F2081E831004FF48060CDE90D05022143
:1016D0000AA8FFF79FF908B172B6FEE74FF4004081
:1016E00011900F940FA8FFF71FF9002801D072B6D0
:1016F000FEE715B030BD70470148FFF750BD000050
:1017000048000020F0B50268204C214D214E224FA8
:10171000224B4FF0804CA04209D0984207D0604540
:1017200005D0A84203D0B04201D0B84204D122F083
:10173000700E4A6842EA0E02A04209D0984207D0D1
:10174000604505D0A84203D0B04201D0B84203D1D1
:1017500022F44075CA682A434D6922F080022A4368
:1017600002608A68C2620A688262A04201D098421E
:1017700001D109690163012141610169C90703D0F0
:10178000016921F001010161F0BD0000002C014060
:101790000004004000080040000C004000340140FC
:1017A00010B5846842EA032224F47F440A432243AA
:1017B000826010BD826822F070020A4342F0070185
:1017C0008160704710B5036A046A24F00104046262
:1017D000846924F0F00444EA021423F00A020A4364
:1017E0008461026210BD10B5036A046A24F010041B
:1017F0000462846923F0A00324F4704444EA0232B2
:1018000043EA01118261016210BD01680C3151E8A7
:10181000002F22F4907241E80023002BF5D10168DB
:10182000143151E8002F22F0010241E80023002B7F
:10183000F5D1016B012909D101680C3151E8002F64
:1018400022F0100241E80023002BF5D1202180F87E
:10185000421000210163704710B504000AD006A0B1
:1018600000F01EF8204600F01BF8BDE8104004A070
:1018700000F016B810BD00005B494E464F5D0000F9
:101880000D0A0000002807D0002905D00A460146AD
:1018900064230248FFF7D6BD704700009000002087
:1018A00010B5040007D0FEF7B1FC81B22046BDE8B8
:1018B0001040FFF7E7BF10BD70B50446006801692E
:1018C000E26821F44051114301612169A068084395
:1018D000616908432168CA6841F20C639A43024374
:1018E000CA6020684169A26921F4407111434161D5
:1018F0001E492068884202D1FFF732F901E0FFF764
:101900001FF900EBC00101EB001260686421800048
:10191000B2FBF0F3B3FBF1F36FF018067343B2FBC5
:10192000F0F5B2FBF0F605EB8305322303EB05156A
:10193000B5FBF1F5B6FBF1F605F0F00505EB061584
:10194000B2FBF0F6B2FBF0F0B0FBF1F06FF0180272
:10195000504306EB800003EB0010B0FBF1F0216870
:1019600000F00F002844886070BD0000003801407E
:101970002DE9F843984617460D460446089E24E094
:10198000701C22D0FEF732FFA0EB0800B0421AD83C
:10199000CEB12068C168490717D5802D15D0402DDC
:1019A00013D00168C94309070FD4016800254068B6
:1019B00000902046FFF729FF0820606484F840501B
:1019C0000120BDE8F8830320FBE72068006835EAC2
:1019D000000004D00020B842D2D00020F1E701205E
:1019E000F9E7FEE70907090E002804DB00F1E02013
:1019F00080F80014704700F00F0000F1E02080F83C
:101A0000141D7047FEF700FFFFF738FEFFF792FD49
:101A1000FFF712FEFFF7DEFDFFF766FD0748FFF751
:101A200019FB07A0FFF718FF0EA0FFF715FF11A085
:101A3000FFF712FF02A0FFF70FFFFEE748000020AC
:101A40003D3D3D3D3D3D3D3D3D3D3D3D3D3D3D3DC6
:101A50003D3D3D3D3D3D3D3D3D3D3D3D3D3D3D3DB6
:101A60000000000053797374656D205374617274C3
:101A70000000000053544D33324631303320496E5C
:101A80006974204F4B0000000102020304050607A1
:101A900008090A0B0C0D0E0F1010000000000000CA
:101AA000000001020304060708090000000001020B
:101AB00003040000D41A00080000002018000000F1
:101AC0006C010008EC1A0008180000202007000034
:101AD0008801000800000100000000000100000073
:0C1AE000100000000000000000127A005E
:0400000508000131BD
:00000001FF
